:020000040001F9
:2000000000800220411A0100AD1A01004D150100AD1A0100AD1A0100AD1A0100000000005F
:20002000000000000000000000000000AD1A0100AD1A010000000000AD1A01003905010029
:20004000AD1A0100AD1A0100AD1A0100AD1A0100AD1A010000000000AD1A0100AD1A010028
:20006000AD1A0100AD1A0100AD1A0100AD1A0100AD1A0100AD1A0100AD1A0100AD1A010040
:20008000AD1A0100AD1A0100AD1A0100AD1A0100AD1A0100AD1A0100AD1A0100AD1A010020
:2000A000AD1A0100AD1A0100AD1A0100AD1A0100AD1A0100AD1A0100AD1A0100AD1A010000
:2000C000AD1A0100D1070100AD1A0100AD1A01009D090100AD1A0100AD1A0100AD1A0100F0
:2000E000AD1A0100AD1A0100AD1A0100AD1A0100AD1A010000000000AD1A0100AD1A010088
:20010000AD1A0100AD1A0100AD1A0100AD1A0100AD1A0100AD1A0100AD1A0100AD1A01009F
:20012000AD1A0100AD1A0100AD1A0100AD1A0100AD1A010000000000AD1A0100000000000F
:20014000AD1A0100AD1A0100AD1A0100AD1A0100AD1A010000000000AD1A0100AD1A010027
:20016000AD1A0100AD1A0100AD1A0100AD1A0100AD1A0100AD1A0100AD1A0100AD1A01003F
:20018000AD1A0100AD1A0100AD1A010000000000AD1A0100AD1A0100AD1A0100AD1A0100E7
:2001A000AD1A0100AD1A0100AD1A010000000000AD1A0100AD1A0100000000000000000057
:2001C0000000000000000000000000000000000000000000AD1A0100AD1A0100AD1A0100C7
:2001E000AD1A0100AD1A0100AD1A0100AD1A0100AD1A010010B5054C237833B9044B13B167
:200200000448AFF300800123237010BDE409002000000000E893010008B5034B1BB1034940
:200220000348AFF3008008BD00000000E8090020E8930100A3F5803A704700BF174B002BAA
:2002400008BF134B9D46FFF7F5FF00218B460F461348144A121A01F0F3FC0E4B002B00D04C
:2002600098470D4B002B00D098470020002104000D000D48002802D00C4803F0F3FC01F0A5
:20028000BBFC2000290000F087FC01F0A5FC00BF00000800000000000000000000800220F0
:2002A000E4090020640A0020653C0100914F010080B483B000AF0346FB71FB7903F01F02CD
:2002C000074997F907305B09012000FA02F241F8232000BF0C37BD465DF8047B704700BFC9
:2002E00000E100E080B483B000AF03463960FB7197F90730002B0BDA3B68DAB20C49FB790A
:2003000003F00F03043B1201D2B20B441A7609E03B68DAB2074997F907301201D2B20B440E
:2003200083F8002300BF0C37BD465DF8047B704700ED00E000E100E080B400AFBFF34F8F8E
:2003400000BF074BDB6803F4E0620549054B1343CB60BFF34F8F00BF00BF00BFFCE700BF82
:2003600000ED00E00400FA0580B582B000AF78607B68013BB3F1807F01D301230FE00A4AC2
:200380007B68013B53600F214FF0FF30FFF7AAFF054B00229A60044B07221A60002318466F
:2003A0000837BD4680BD00BF10E000E080B400AF4FF080435922C3F800214FF080431622B9
:2003C000C3F800214FF080438822C3F800214FF08043D3F80031002BEAD000BF00BFBD4655
:2003E0005DF8047B704780B400AF4FF080430022C3F8002100BFBD465DF8047B704780B40E
:2004000083B000AF78607B681B6843F080427B681A6000BF0C37BD465DF8047B704780B4A6
:2004200083B000AF78607B681B6843F000527B681A6000BF0C37BD465DF8047B704780B4F6
:2004400083B000AF78607B689B6803F0010318460C37BD465DF8047B704780B483B000AFC0
:2004600078607B6801229A6000BF0C37BD465DF8047B704780B485B000AF7860154B1B6841
:20048000154AA2FB0323DB085B00FB60134B00221A60134B2E22DA60114A7B685360104B73
:2004A00001221A6105E00E4B1B69002B01D100230AE0FB685A1EFA60002BF4D1074B4FF01C
:2004C000FF321A604FF0FF3318461437BD465DF8047B704700000020CDCCCCCC140A00203A
:2004E00000C0004080B400AF034B1B681846BD465DF8047B704700BF040A002080B483B008
:2005000000AF7860044A7B68136000BF0C37BD465DF8047B704700BF040A002080B400AF50
:20052000044B1B680133034A136000BFBD465DF8047B7047040A002080B500AFFFF7EEFFB3
:20054000FFF7D0FF0346B3F1FF3F02D10020FFF7D5FF00BF80BD000080B582B000AF786004
:200560000020FFF7CBFF094B1A687B68B2FBF3F31846FFF7F9FE0346002B03D0044801F080
:2005800013FCFEE700BF0837BD4680BD00000020A48D010080B400AF034B1B681846BD46C2
:2005A0005DF8047B704700BF080A002080B483B000AF7860044A7B68136000BF0C37BD4628
:2005C0005DF8047B704700BF080A002080B500AF084B1B680133074A1360FFF7DBFF0346D4
:2005E0004EF65F22934202D90020FFF7DFFF00BF80BD00BF080A002080B584B000AF034644
:200600000A46FB711346BB7100BF244B9B6903F08053002BF9D0FFF7C9FE00F0B7FEFB79D7
:20062000002B02D0012B11D020E00123FB60FB6883F3108800BF4FF48010FFF71BFF184BBB
:200640001B68174A43F0020313600FE00123BB60BB6883F3108800BF0020FFF70BFF104B72
:200660001B680F4A23F00203136000BFBB79022B0CD0022B0DDC002B02D0012B03D008E01D
:20068000FFF75AFE05E000F0D4FF02E000F0C2FF00BF00BF1037BD4680BD00BF00000740C6
:2006A00000C0004080B584B000AFF860B9607A60194B1B68184A43F008031360164AFB681A
:2006C000D360154ABB685360134A7B689360124B01221A61BFF36F8F00BF00BF0E4B1B6979
:2006E00003F00103002BF9D10B4B1B6803F04003002B0CD0084B1B681946084801F0F2FA96
:20070000054B1B68044A43F040031360FEE700BF1037BD4680BD00BF00C00040BC8D01009B
:2007200080B584B000AF786039600023FB603B687A682049204801F0D5FA00BF1F4B9B696F
:2007400003F08053002BF9D0FFF730FE1C4B5B681B4A43F0040353601A4B1B68194A43F0C1
:2007600009031360786800F021FEF860FB687A681049154801F0B6FA7B68C3F30B03002B45
:2007800004D1002279682220FFF78CFF3A6879682120FFF787FF786800F008FEF860FB68ED
:2007A0007A680449094801F09DFA00BF1037BD4680BD00BF288F0100D48D010000000740CB
:2007C0000002004000C00040E88D01000C8E010080B500AF1A48FFF732FE0346012B2CD1E8
:2007E0001748FFF73AFEFFF7F1FEFFF7D3FE0246144BA3FB02139B094FF47A7101FB03F3A2
:20080000D31A002B04D1104A137843F001031370FFF7C0FE02460B4BA3FB02135B094FF4A0
:20082000FA7101FB03F3D31A002B04D1064A137843F002031370FFF7ADFE00BF80BD00BF7C
:2008400000010540D34D6210000A002080B500AF4FF47A724FF00061064800F028FF054831
:20086000FFF7DDFD2120FFF723FD0248FFF7C7FD00BF80BD0001054080B500AFFFF732FE01
:200880001F4B1B7803F00203DBB2002B14D01C4A13786FF3410313701A4B1B685A1C1949ED
:2008A0000A601A461849194801F01CFA184B1B68174A83F001031360114B1B7803F004038B
:2008C000DBB2002B19D00E4A13786FF38203137000211048FFF724FF0F4801F065FA0221CE
:2008E0000120FFF789FE0D4B1B680C4A23F00803136000F03BFDFFF776FD00BF80BD00BF4C
:20090000000A00200C0A0020388F01002C8E0100C0490040FCFF0200448E010000C00040DB
:2009200080B582B000AF0023FB71184B1B68FB7197F90730002B03DA154801F035FA21E073
:20094000FB791946134801F0CDF9FB797A2B14D07A2B17DC782B10D0782B13DC5A2B0CD0A7
:200960005A2B0FDC312B02D0582B06D00AE00A4A137843F00403137004E0FFF717FD00F01C
:2009800049FE00BF00BF0837BD4680BD00000740688E01007C8E0100000A002080B500AFBC
:2009A0000D4BDB6903F48853002B08D001E0FFF7B7FF094B9B6903F48043002BF7D0064BE4
:2009C0009B6903F07103002B04D04FF41051024800F006FF00BF80BD0000074080B500AFA3
:2009E0002A4800F035FE4FF4E131294800F038FF1421274801F00AF8254B9B68244A23F0EA
:200A000010039360224B9B68214A43F0200393601F4B5B681E4A43F4016343F00103536092
:200A20002420FFF745FC00F095F903461946194801F058F900F084F903461946164801F00E
:200A400051F900F0BBF803461946144801F04AF900F0CEF803461946114801F043F900F09D
:200A6000DFF8034619460F4801F03CF900F020F9034619460C4801F035F900F061F90346C3
:200A80001946054801F02EF900BF80BD10000004000007408C8E0100A88E0100C08E01009A
:200AA000D88E0100F08E01000C8F010080B500AF4FF080439B6E4FF0804223F00F039366A6
:200AC0004FF080439B6E4FF0804223F0F00393664FF080439B6E4FF0804223F4706393661C
:200AE00001220121074800F0A1FC01220221054800F09CFC01220421024800F097FC00BFE6
:200B000080BD00BFC041004080B500AFFFF74EFC1C4B1B681B4A23F0F0031360042000F098
:200B200059FA102000F094FB174800F01DF9174B00225A63164800F05FFA00224FF0407154
:200B4000134800F09DF94FF08043DB6B4FF0804223F47F03D3634FF08043DB6B4FF0804253
:200B600043F4CC03D3630B4800F046FA00224FF4E041084800F084F900F09AFFFFF733FCC5
:200B800000BF80BD4041004000B0710B00020040103D80570300C05E80B500AFFFF7B4FF58
:200BA000FFF784FFFFF71AFFFFF750FE4FF47A70FFF7D2FCFFF760FEFCE7000080B483B0DA
:200BC00000AF094B1B6803F00103012B02D1074B7B6001E000237B607B6818460C37BD4606
:200BE0005DF8047B704700BF00020040001BB70080B483B000AF094B1B6803F00203022B85
:200C000003D14FF400437B6001E000237B607B6818460C37BD465DF8047B7047000200406C
:200C200080B582B000AF00F043FF1F4B5B6B03F00703002B03D11D4B1B687B602EE01A4B07
:200C40005B6B03F00703012B04D1184B1B685B087B6023E0144B5B6B03F00703022B04D185
:200C6000124B1B689B087B6018E00F4B5B6B03F00703032B04D10D4B1B68DB087B600DE078
:200C8000094B5B6B03F00703042B04D1074B1B681B097B6002E0054B1B687B607B68184694
:200CA0000837BD4680BD00BF000200400000002080B582B000AF00F0FBFE1F4B5B6B03F072
:200CC0007003002B03D11D4B1B687B602EE01A4B5B6B03F07003102B04D1184B1B685B08E4
:200CE0007B6023E0144B5B6B03F07003202B04D1124B1B689B087B6018E00F4B5B6B03F002
:200D00007003302B04D10D4B1B68DB087B600DE0094B5B6B03F07003402B04D1074B1B6815
:200D20001B097B6002E0054B1B687B607B6818460837BD4680BD00BF000200400000002043
:200D400080B500AF00F0B4FE014B1B68184680BD0000002080B500AF00F0AAFE014B1B6838
:200D6000184680BD0000002080B584B000AF7860244B1B6D03F01003FB607B68224A93424C
:200D800001D9214B7B601F4B1B681E4A43F004031360102000F05CFA1A4B1B69194A43F03B
:200DA00007031361174B1B6A164A23F00F031362144B1B6803F00103012B05D179680020F8
:200DC00000F040F978600AE079684FF4002000F039F978600B4B1B6D03F01003FB6000218A
:200DE000022000F013F8FB68002B05D1054B1B68044A23F0040313607B6818461037BD4639
:200E000080BD00BF0002004000B0710B80B584B000AF78603960194B1B6D03F01003FB6092
:200E2000164B1B68154A43F004031360102000F00FFA124B1B69114A43F0070313610F4B52
:200E40001B6A23F00F020D493B6813430B620B4B1B6923F0070209497B6813430B6100F050
:200E600027FEFB68002B05D1044B1B68034A23F00403136000BF1037BD4680BD00020040B5
:200E800080B487B000AFF860B9607A6000233B6100237B61FB689B0ADBB2002B6BD04FF0F5
:200EA0008043D3F8F431DBB2012B37D1FB689B0C03F00303022B07D1FB6803F01F031F2BF4
:200EC00002D1414B7B6144E0FB689B0C03F00303022B07D1FB6803F01F031D2B02D13A4B93
:200EE0007B6136E0FB689B0C03F00303022B02D1364B7B612DE0FB689B0C03F00303032B62
:200F000002D1334B7B6124E0FB689B0C03F0030303F1805388339B007B611AE0FB689B0CA0
:200F200003F00303022B02D1284B7B6111E0FB689B0C03F00303032B02D1254B7B6108E040
:200F4000FB689B0C03F0030303F1805388339B007B617B691A68FB689B0AD9B2FB685B09D5
:200F600003F01F0301FA03F3DB4302EA03017B697A680A431A60FB685B0E03F00703002BDC
:200F80001BD0FB681B0F03F0030303F1805384339B003B613B691A68FB685B0E03F007013E
:200FA000FB681B0D03F01F0301FA03F3DB4302EA03013B69BA680A431A6000BF1C37BD46F0
:200FC0005DF8047B704700BF280200402C0200403002004080B483B000AF7860054B1A68BD
:200FE00004497B6813430B6000BF0C37BD465DF8047B70470002004080B485B000AF78603E
:201000000023FB600023BB607B6803F01F03012202FA03F3FB600A4BBB607B689B0F9B0014
:20102000BA681344BB60BB681968BB68FA680A431A6000BF1437BD465DF8047B704700BFD5
:201040000402004080B590B000AF7860396000F0EFF87B68002B0FD16D4B1B686C4A43F0CC
:2010600001031360012000F0F3F80023FB62694BFB630223BB630FE0654B1B68644A43F025
:2010800004031360102000F0E3F84FF40023FB62604BFB630423BB633B685F4A934200F2B7
:2010A000A1803B685D4A934240F29C804FF0FF337B620023FB6100233B620023BB613B6833
:2010C0007B6101233B636AE07B6A002B6BD03B6B032B61D03B6B042B03D17B699B003B6015
:2010E00005E03B6B022B02D17B695B003B600223BB634CE07B6A002B4DD0FA6BBB6BB2FBB7
:20110000F3F33B613B69464A93423DD93B69454A934239D802237B632FE03B695B009A0862
:201120007B6B02FB03F3FB60FB683C4A934221D9FB683D4A93421DD83B689B08FA689A428B
:2011400004D93B689B08FA68D31A03E03B689A08FB68D31ABB60BA687B6A9A420AD2BB68A8
:201160007B62BB6BFB617B6B3B623B6BBB617B6A002B08D07B6B01337B637B6B40F20122B0
:201180009342CAD900E000BFBB6B0133BB63BB6B202BAFD900E000BF3B6B01333B633B6B0A
:2011A000042B91D900E000BFBB69013B9A03FB6A1A43FB69013B5B021A433B6A023B14499F
:2011C00013430B64042000F043F8BB69FA6902FB03F3FA6BB2FBF3F33A6A02FB03F35B0097
:2011E000BB6210E07B68002B04D1094B44F21E221A6402E0064B0D4A1A64042000F028F87B
:2012000000F058F8B862BB6A18464037BD4680BD00020040001BB7000065CD1D7FF0FA026C
:20122000FF083D0000127A00405973071E42080080B400AF054B1B6C044A43F480331364FA
:2012400000BFBD465DF8047B704700BF0002004080B485B000AF7860134B1B685B08FB60B1
:201260000123BB60114B00221A6008E0FB68013BFB60FB68002B02D10023BB6006E00C4B79
:201280001A6D7B6813407A689A42EFD1FB68002B03D1064B4FF0FF321A60BB6818461437AA
:2012A000BD465DF8047B704700000020100A00200002004080B489B000AF0023FB61284BF6
:2012C0007B60284B1B6C7B617B6903F4A023002B02D00023FB613CE07B6903F40033002BEE
:2012E0000CD07B6903F40023002B02D01E4BBB6101E01D4BBB61BB69FB612AE07B6903F4C8
:201300000023002B02D0184BBB6101E0164BBB617B699B0B03F0030320333B4413F81C3C18
:201320003B617B69C3F308030233FB607B695B0A03F01F030133BB60BB699B08FA6803FB08
:2013400002F2BB68396901FB03F3B2FBF3F3DB00FB61FB6918462437BD465DF8047B70476D
:201360000102020400020040001BB70080B400AF054B1B68044A23F00103136000BFBD4600
:201380005DF8047B704700BF00C0004080B400AF054B1B68044A43F00103136000BFBD4693
:2013A0005DF8047B704700BF00C0004080B485B000AF7860194B00221A60194B0022DA6033
:2013C000174A7B685360164B01221A61154B1B68154AA2FB0323DB085B00FB6000BFFB6857
:2013E0005A1EFA60002B06DD0D4BD3F8C03003F00103002BF3D1FB68002B06DC074B4FF013
:20140000FF321A604FF0FF3301E0054B9B6818461437BD465DF8047B704700BF140A002048
:2014200000C0004000000020CDCCCCCC80B487B000AFF860B9607A6000237B611EE00122D6
:201440007B699A40BB681A4001217B6901FA03F39A4210D1FB681A687B695B00032101FA5A
:2014600003F3DB431A407B695B00796801FA03F31A43FB681A607B6901337B617B690F2BA1
:20148000DDD900BF00BF1C37BD465DF8047B704780B582B000AF78607B681B6819461C4820
:2014A00000F020FC7B6804331B681946194800F019FC7B6808331B681946174800F012FC61
:2014C0007B680C331B681946144800F00BFC7B6810331B681946124800F004FC7B68143339
:2014E0001B6819460F4800F0FDFB7B6818331B6819460D4800F0F6FB7B681C331B68194671
:201500000A4800F0EFFB00BF0837BD4680BD00BF408F01004C8F0100588F0100648F01001A
:20152000708F01007C8F0100888F0100948F010080B582B000AF7860034800F035FC786829
:20154000FFF7A6FFFEE700BFA08F010080B400AF074B04207146084204D0EFF309807146CC
:20156000FFF7E6BFEFF30880FFF7E2BFFEE700BF3115010080B487B000AFF860B9607A607F
:201580007B687B611CE000BF134B9B6903F40003002BF9D1BB6893F900300A2B09D10E4B39
:2015A0000D221A6000BF0C4B9B6903F40003002BF9D1BB685A1CBA6093F90020064B1A604F
:2015C0007B695A1E7A61002BDDD17B6818461C37BD465DF8047B70470000074080B485B029
:2015E00000AFF860B9607A6000BF094B9B6903F48043002BF9D1064B1B685AB2BB681A709E
:20160000012318461437BD465DF8047B704700BF0000074080B400AF4FF080439B684FF042
:20162000804243F00103936000BFBD465DF8047B704780B400AF4FF080439B684FF0804288
:2016400043F00203936000BFBD465DF8047B704780B485B000AF78600023FB600023BB6066
:201660007B6823F07F43012202FA03F3FB607B681B0E03F180430833BB60BB681968BB6862
:20168000FA680A431A607B6823F07F43012202FA03F3DB43FB60BB681968BB68FA680A4068
:2016A0001A6000BF1437BD465DF8047B704780B588B000AFF860B9607A60F86800F032F837
:2016C00078610023FB610023BB617B695B087A689A4202D90223FB6110E07A697B68B2FBAF
:2016E000F3F3FB61FB691B0EBB61BB69002B05D0BB690133FA69B2FBF3F3FB61BA68BB69EB
:201700001A43FB681A60FB68FA695A60BB690133FA6902FB03F37A69B2FBF3F31846203736
:20172000BD4680BDB0B58CB000AF7860274B07F108041D460FCD0FC495E80F0084E80F00B2
:201740007B68234A934206D1224B5B691B0A03F00703FB621BE07B681F4A934206D11D4B82
:201760005B691B0B03F00703FB6210E07B681B4A934206D1174B5B691B0C03F00703FB629A
:2017800005E0144B5B691B0D03F00703FB62FB6A022B0FD17B680E4A934203D07B680E4A2F
:2017A000934203D1FFF73CFAB8620AE0FFF780FAB86206E0FB6A9B0030333B4453F8283C4F
:2017C000BB62BB6A18463037BD46B0BDB88F01000000054000020040000105400010054028
:2017E00080B483B000AF786039603B6803F48063002B05D07B6870229A617B6808229A616D
:201800003B6803F40063002B05D07B685B6943F001027B685A613B6803F40053002B02D066
:201820007B680E4A9A613B6803F48043002B02D07B681F225A643B6803F40043002B06D058
:201840007B688022DA617B6840F20F329A6300BF0C37BD465DF8047B704700BF0100000124
:2018600090B58BB000AF7860396000237B6200233B625E4B07F10C040FCB84E80F000023DF
:20188000FB617B685A4A93420CD15A4B5B691B0E03F003037B62574B1B6A1B0A03F00F03FA
:2018A0003B6252E07B68544A93420CD1514B5B699B0E03F003037B624E4B1B6A1B0B03F010
:2018C0000F033B6241E07B684C4A93420BD1494BDB691B0E03F003037B62464B1B6B03F02D
:2018E0000F033B6231E07B68454A93420CD1414BDB699B0E03F003037B623E4B1B6B1B0982
:2019000003F00F033B6220E07B683E4A93420CD1384BDB691B0F03F003037B62354B1B6B3B
:201920001B0A03F00F033B620FE07B68364A93420BD1304BDB699B0F03F003037B622D4B26
:201940001B6B1B0B03F00F033B627B6800221A637B680322DA607B689B6823F4702323F0D2
:20196000F0037A6893607B6A012B08D1FFF7A2FC02467B6A9B0028333B4443F81C2C3B6859
:20198000002B2FD07B6A9B0028333B4453F81C2C3B6A0133B2FBF3F23B685B081A443B68BE
:2019A000B2FBF3F3023BFB61FB69B3F5803F14D37B6A9B0028333B4453F81C2C3B6A013383
:2019C000B2FBF3F23B68DB001A443B68B2FBF3F31B099A1E7B685A6204E0FB6943F04052DB
:2019E0007B685A6200BF2C37BD4690BDD88F01000000074000020040001007400020074027
:201A000000300740004007400050074080B483B000AF786039607B681B6A23F0FF023B688B
:201A20001A437B681A627B685B6843F400627B685A6000BF0C37BD465DF8047B704700007E
:201A40001449154A154B9A42BEBF51F8040B42F8040BF8E712484FF0590101604FF01601E7
:201A600001604FF0880101600E48416841F4804141600D48416841F002014160416841F099
:201A80000401416000F066F805484FF000010160FEF7D4FBF493010000000020E4090020EB
:201AA000000100400002004000700040FEE700BF80B584B000AFFFF7FDFB0346174A13602C
:201AC000174B1B6903F00703BB60BB68022B03D1124B1B68FB6004E0124ABB6852F82330A9
:201AE000FB600F4B1B6A03F00F0301337B60FA687B68B2FBF3F30C4A13600B4B1B6803F526
:201B0000F42303F59073094AA2FB03239B0C084A136000BF1037BD4680BD00BF0800002004
:201B2000000200400C0000200000002083DE1B430400002080B400AF054B1B68044A23F01D
:201B4000F003136000BFBD465DF8047B704700BF4041004080B500AF1B4BD3F888301A4A21
:201B600043F47003C2F88830184BDB6C23F00F03164A43F00803D364154BD3F89830144A54
:201B800043F48023C2F89830114B9B68104A43F0020393600F4BD3F804310E4A03F0F73336
:201BA000C2F804310B4BD3F808310A4A03F0F733C2F80831064B9B68054A23F002039360CA
:201BC000FFF7B8FF00BF80BD00ED00E000C00040000200400010044008B50021044601F0E0
:201BE000DBFF044B1868C36B03B19847204607F0CBF800BFE88F010070B50D4E0D4D761BB9
:201C0000B61006D0002455F8043B01349847A642F9D1094E094D761B07F0B8F8B61006D031
:201C2000002455F8043B01349847A642F9D170BDD8090020D8090020E0090020D8090020F5
:201C4000830730B548D0541E002A3FD0CAB2034601E0013C3AD303F8012B9D07F9D1032C9E
:201C60002DD9CDB245EA05250F2C45EA054536D9A4F1100222F00F0C03F1200EE6444FEA6A
:201C8000121C03F1100242E9045542E9025510327245F8D10CF1010214F00C0F03EB021227
:201CA00004F00F0C13D0ACF1040323F003030433134442F8045B9342FBD10CF003042CB1CD
:201CC000CAB21C4403F8012B9C42FBD130BD64461346002CF4D1F9E703461446BFE71A46ED
:201CE000A446E0E70FB400B5074983B004AB086853F8042B8168019300F0D2F803B05DF860
:201D000004EB04B0704700BF2C00002070B5054688B008460C4600F053F8224EAA6B0590C1
:201D200001214318CDE9066104A8022104940393AC680190029122B3636E13F0010FB4F96E
:201D40000C309AB201D1980525D5910406D4626E43F4005322F40052A3816266284601AA5C
:201D6000214603F081FA636E002814BF4FF0FF350A25DA0702D4A3899B0506D5284608B09C
:201D800070BD284603F072F8D6E7A06D03F012FC284608B070BDA06D03F00AFCB4F90C303E
:201DA0009AB2D2E7EC8F0100024B01461868FFF7ADBF00BF2C000020000000000000000021
:201DC00090F800F06DE9024520F007016FF0000C10F0070491F820F040F049804FF000048B
:201DE0006FF00700D1E9002391F840F000F1080082FA4CF2A4FA8CF283FA4CF3A2FA8CF341
:201E00004BBBD1E9022382FA4CF200F10800A4FA8CF283FA4CF3A2FA8CF3E3B9D1E90423BA
:201E200082FA4CF200F10800A4FA8CF283FA4CF3A2FA8CF37BB9D1E9062301F1200182FA56
:201E40004CF200F10800A4FA8CF283FA4CF3A2FA8CF3002BC6D0002A04BF04301A4612BA4A
:201E6000B2FA82F2FDE8024500EBD2007047D1E9002304F00305C4F100004FEAC50514F00D
:201E8000040F91F840F00CFA05F562EA05021CBF63EA050362464FF00004A9E70000000078
:201EA0002DE9F04F2DED0A8BCFB01C460AEE101A91460AEE900A054603F072FB03681393F6
:201EC00018460994FFF77CFF12901DB1AB6B002B00F048821AEE102A536EDB0740F147814D
:201EE000B2F90C309AB2960409D41AEE101A43F400538B819AB24B6E23F400534B66150734
:201F000040F1CC801AEE103A1B69002B00F0C68002F01A030A2B00F0D2804D469FED9C7B51
:201F20002B78002425AACDE92344CDE91544CDE917448DED107B1AEE909A0E94229290466B
:201F400014940694002B00F0B081AB4604E01BF8013F002B00F0CD80252BF8D1BBEB050699
:201F600040F0CB809BF80030002B00F09E8100234FF0FF329BF801708DF86B3005930BF19E
:201F8000010B04929A462B2420210BF1010BA7F120035A2B00F20081DFE813F00A03FE009F
:201FA000FE000503FE00FE00FE006A00FE00FE0076029E02FE008102A802FE00A3025B007A
:201FC0005B005B005B005B005B005B005B005B00FE00FE00FE00FE00FE00FE00FE008E01A8
:201FE000FE001602ED018E018E018E01FE00FE00FE00FE000003FE00FE004502FE00FE00F6
:20200000FE002002FE00C202FE00FE009907FE00FE00FE00FE00FE00FE00FE00FE008E01C3
:20202000FE001602EF018E018E018E01E602EF01E801FE00F302FE0086024702D402E801AB
:20204000FE0020027D007507FE00FE007907FE007D00A7F1300300221BF8017B02EB820283
:2020600003EB4202A7F13003092BF5D905928EE7484603F095FA436817931846FFF7A0FEFE
:2020800018900646484603F08BFA836815932021002E40F0E9869BF8007076E71AEE101A13
:2020A0001AEE900A1AEE105A01F002FD002841F02783AA8902F01A030A2B7FF42EAF1AEE4A
:2020C000101AB1F90E30002BFFF627AF4B6ED90702D4920541F15A811AEE101A1AEE900A11
:2020E00023464A464FB0BDEC0A8BBDE8F04F01F09FBCBBEB050600F0D880249B3344249394
:20210000239B0133072BC8E90056239305DC08F10808069B3344069324E71AEE101A22AA3A
:20212000484604F07FFD90B90DF19408F1E71AEE101A22AA484604F075FD002800F0A680B6
:20214000089B23B11AEE900A194602F087FF1AEE102A536ED80740F1FA8093895A0601F194
:20216000D88206984FB0BDEC0A8BBDE8F08FB2F90C309F059AB23FF5B6AE1AEE105AA86D10
:2021800003F016FAB5F90C309AB2ACE6AFF300800000000000000000002F00F0868000230A
:2021A0008DF8D4708DF86B300122CDE90723039204930C930F930D9335AD1AF002020A929A
:2021C00002D0039A023203921AF084020B9205D1059A0399561A002E00F36883249C8BB111
:2021E000239B0DF16B0201330134C8F80020072B4FF0010224942393C8F8042000F39F8392
:2022000008F108080A9B83B1239B1BAA01330234C8F80020072B4FF0020224942393C8F86C
:20222000042000F3998308F108080B9B802B00F06A82049B079A9E1A002E00F3AB821AF4E1
:20224000807F40F00682079BC8F804301C44239BC8F800500133072B2494239300F31983A0
:2022600008F108081AF0040F05D0059B039A9D1A002D00F38583DDE9052303998A42ACBF86
:202280009B185B180693002C7FF451AF00232393089B1BB10899484602F0E0FE0DF19408FF
:2022A0005D462B78002B7FF450AE249B002B41F01B82002323934AE7099B073323F007037F
:2022C000B3EC027B8DED107BDDE91012099322F000430BEE101A0BEE903A4FF0FF32B0EE10
:2022E0004B9AF0EE6B9AB74B51EC190B06F04EFB002840F0E884B34B51EC190B4FF0FF32E1
:2023000006F026FB002840F0DE84DDE910010022002306F013FB002840F067879DF86B3056
:20232000A94DAA4A2AF0800A0321472FC8BF1546002208920391079104920C920F920D9237
:20234000002B3FF43AAF039A0132039235E7938999053FF503AF1AEE104A906D03F02AF9A0
:20236000A389FBE6284602F081FDB3E59BF800704AF0200A09E64AF0100A1AF0200F099B53
:2023800000F04084073323F007031A465B6852F8084B09921E46002BC0F24384049B0133FC
:2023A00000F0BC822AF08003039354EA060340F0B782049B002B40F0B882DDF80CA0002334
:2023C000049307934EAD1FE1099A002352F8041B8DF86B308DF8D4100992E5E6099C54F8C2
:2023E000045B00268DF86B60002D00F08F85049B5A1C00F051861A463146284603F000FCC7
:202400000890002801F02F81089B0496591B079121EAE1719DF86B300994039108960C9614
:202420000F960D968CE74AF0100A1AF0200600F0C983099B073323F007035E6853F8084BC2
:2024400009932AF480630393002300228DF86B20049A551C00F0C080039921F0800A54EA40
:20246000060140F0B780002A40F00786002BA6D1039B13F00103079300F0148430238DF8C6
:2024800037310DF23715BFE0099B53F8042B0592002A80F2D583059A0993524205929BF848
:2024A00000704AF0040A70E51AF0200F40F0D1841AF0100F40F0E7851AF0400F40F0A986D4
:2024C0001AF4007F00F0DF85099B069953F8042B099311705D46E4E69BF800708DF86B40A1
:2024E00053E59BF800704AF0800A4EE55A4612F8017B2A2F01F06F82A7F13003092B934671
:2025000098BF002201F2EC801BF8017B02EB820203EB4202A7F13003092BF5D9049236E533
:202520004AF010030393039B13F0200600F05983099B073323F007035E6853F8084B09932A
:20254000012382E7099B53F8044B099330234AF0020278278DF86C301D4B149303928DF89A
:202560006D700026022370E79BF80070682F03BF9BF801704AF4007A0BF1010B4AF0400A38
:2025800003E59BF800706C2F03BF9BF801704AF0200A0BF1010B4AF0100AF6E49BF8007052
:2025A0004AF0080AF1E49BF800704AF0010AECE49DF86B30002B7FF46EAD9BF800708DF871
:2025C0006B10E2E4FFFFEF7FF08F0100F48F010000900100CDF80CA0012B00F0A181022BDD
:2025E0004EAD20D1149A04F00F032409D35C05F8013D44EA0674360954EA0603F3D14EABB9
:202600005B1BDDF80CA00793049907989DF86B3081424FF00002B8BF0146089203910C922F
:202620000F920D928CE604F00703E40844EA4674F608303354EA06012A4605F8013DF2D102
:202640000399CC0700F175824EAB5B1B8A460793DAE7652F40F3D780DDE91001002200234F
:2026600006F062F9002800F0C681239BC14AC8F80020013301340122072B24942393C8F815
:20268000042000F3DE8408F108081C9B0E9A934280F2D182129B139A1C44C8E90023239B73
:2026A00024940133072B239300F3228408F108080E9B5D1E002D7FF7D5AD102D239B41F32C
:2026C0006981AD4F0A97224610261AEE104A05E008F10808103D102D40F3C184013310320D
:2026E000072BC8E90076CDE92332F1DD22AA2146484604F097FA00287FF422ADDDE92332DD
:202700000DF19408E6E7059B039A9E1A002E7FF790AD102E239B41F33F8097490B952246A5
:202720001AEE105A0A910C4604E0103E102E08F1080819DD013310321021072BCDE92332E7
:20274000C8F80040C8F80410EFDD22AA294648460DF1940804F066FA00287FF4F1AC103E9C
:20276000102EDDE92332E5DC0B9D144601330A9AC8F800203444072BCDE92334C8F80460AA
:2027800000F3A883049B079A9E1A002E08F108087FF755AD102E239B40F30F8576480A9059
:2027A000424621461AEE108A044604E0103E102E02F1080216DD013310311020072BCDE951
:2027C000233114605060F1DD22AA4146484604F029FA00287FF4B4AC103E102EDDE923311A
:2027E00025AAE8DC90460C4601330A9AC8F800203444072BCDE92334C8F8046000F3D48143
:2028000008F108081BE50E9B012B40F37381239EC8F80050013601340123072E24942396AC
:20282000C8F8043000F3968308F10808129B139A01361C44072EC8E90023CDE9236400F365
:20284000978308F10808DDE910010022002306F06BF8002840F07B810E9B0136013B01353A
:202860001C44072EC8F800502396C8F80430249400F3518108F10808169BC8F804300136A4
:202880001C44072E1EABCDE92364C8F800307FF7E7AC1AEE101A22AA484604F0C3F9002840
:2028A0007FF44EAC249C0DF19408DBE4102EDDE9233222DD199510241AEE105A04E0103EB4
:2028C000102E08F1080817DD01332C491032072BC8E90014CDE92332F1DD22AA2946484639
:2028E0000DF1940804F09EF900287FF429AC103E102EDDE92332E7DC199DC8F804600133CB
:20290000B418072B1D4AC8F80020CDE9233400F37D839DF86B3008F1080860E4CDF80CA084
:202920000A2C76F1000380F0318330340123DDF80CA08DF8374107930DF2371564E61AEE96
:20294000101A22AA484604F06DF900287FF4F8AB249C0DF1940855E41AEE101A22AA48463C
:2029600004F060F900287FF4EBAB249C0DF194085BE400BF30900100449001003490010026
:20298000102D239B20DD1AEE107A102604E0103D102D08F1080817DD0133AC4A1034072B6C
:2029A000C8E90026CDE92334F1DD22AA394648460DF1940804F036F900287FF4C1AB103D7B
:2029C000102DDDE92334E7DC0133A04AC8F804502C44072BCDE92334C8F800207FF74BACAC
:2029E0001AEE101A22AA484604F01CF900287FF4A7AB249C3FE41C9A002A40F32B81DDE9ED
:202A00000D739F42A8BF1F46002F0BDD239B01333C44072BC8E900572494239300F3D5850B
:202A200008F108080D9E002FA8BFF61B002E00F344830D9B1AF4806F2B44079340F0E3840E
:202A40001C9B0E9A934203DB1AF0010F00F0D283129A13991444C8E90012239A24940132EA
:202A6000072A239200F3BF8508F108080E9A0799AE18761AD51AAE42A8BF2E46002E0DDDC0
:202A8000239BC8F8001001333444072BC8F804602494239300F3098608F10808002EA8BF18
:202AA000AD1B002D7FF7DEAB102D239B40F37287674F0A97224610261AEE104A05E008F1C6
:202AC0000808103D102D40F3CA8201331032072BC8E90076CDE92332F1DD22AA2146484674
:202AE00004F0A0F800287FF42BABDDE923320DF19408E6E71AF0010F7FF489AE239EC8F812
:202B00000050013601340123072E24942396C8F804307FF7AFAE1AEE101A22AA484604F0E8
:202B200081F800287FF40CABDDE923640DF19408A2E6302B3FF463AD3023023A05F8013CF4
:202B40004EAB9B1ADDF80CA0079315465CE50E9B5D1E002D7FF790AE102D40F321873C4A6D
:202B6000CDF810A023461AEE10AA0A921027144605E008F10808103D102D40F3E382013641
:202B80001033072EC8E90047CDE92363F1DD22AA5146484604F046F800287FF4D1AADDE9BC
:202BA00023630DF19408E6E71AEE101A22AA484604F038F800287FF4C3AA249C0DF1940816
:202BC000FFF73DBB1AF0100340F03D811AF0400200F0C882099A52F8044B09921E46A4B2E5
:202BE0002FE4039B13F0100366D1039A12F0400200F0C682099A52F8044B09921E46A4B22D
:202C0000012322E453F8044B09931AF0100F4FD11AF0400F48D044F3C036334624B2FFF728
:202C2000BABB2D2364428DF86B3066EB4606CDF80CA001230CE41AF0010F3FF413AB29E5CE
:202C40009BF800700993FFF7A0B900BF3490010044900100239BB649C8F800100133013437
:202C60000121072B24942393C8F8041000F3848408F10808002A40F046820E9A0AF00103F2
:202C800013433FF4EFAA129B139A1C44C8E90023239B24940133072B239300F3688308F11B
:202CA000080841E24EADAFE41AF4007F40F0AB82E6173346FFF76FBB099B53F8044B0993F9
:202CC0000123FFF7C2BBDDE9100102460B4605F05DFE002840F02E86612F00F07F85412F9D
:202CE00000F0A082049B013327F02003039300F0C085472B00F0AB85DDE910014AF4807251
:202D0000002907924FF00003C0F2458441EC180B0A930893039B462B00F07484452B00F055
:202D20002585B0EE480AF0EE680A20AB01931DAB0093049A1CAB0221484601F02DF8039B25
:202D4000472B054640F05E861AF0010F5646DDF81CA040F0E384209B5B1B0E93039B472BE2
:202D600000F01B83039B462B00F089841C9B0D930D9B039A013B412A1C9300F0E985FAB2BD
:202D80000021002BB8BF0D9B8DF87820BABFC3F101032D222B22092B8DF8792040F36D8567
:202DA0000DF18704DFF898C1224610468CFB0321DA17C2EBA10202EB8201A3EB410130310F
:202DC00000F8011C19466329134600F1FF32ECDC3033D9B2831E9C4202F8011C40F20E8666
:202DE00013460DF17A0201E013F8011B02F8011B9C42F9D10DF189030DF17A021B1A1344AA
:202E00001EAA9B1A16930E9B169A012B1A44079240F3B285079B129A13440793079A0023A3
:202E200026F4806622EAE27246F4807A0C9303920F930D930A9B002B40F0DE8204939DF8FC
:202E40006B30FFF77DBA099B53F8044B0993FFF7F8BA099B069853F8041B0993C217C1E95D
:202E600000025D46FFF71DBA159B002B3FF413A9159B1B78002B3FF40EA99BF800704AF47D
:202E8000806AFFF782B8CDF80CA0FFF74CBB294B14931AF0200655D0099B073323F007033F
:202EA0005E6853F8084B09931AF0010F09D054EA060306D030238DF86D704AF0020A8DF882
:202EC0006C302AF4806303930223FFF7BEBA1A4B1493DEE71AEE101A22AA484603F0A2FE3C
:202EE00000287FF42DA9249C0DF19408FFF7A1B91AEE101A22AA484603F094FE00287FF40B
:202F00001FA9249C0DF19408FFF7D2BB049A0895062A294628BF062204952B460392074D30
:202F2000099407920C910F910D91FFF709BA00BF3090010000900100149001002890010058
:202F4000676666661AF0100370D0099B53F8044B0993A9E71AEE101A22AA484603F062FE32
:202F600000287FF4EDA8DDE923640DF194085DE41AEE101A22AA484603F054FE00287FF48D
:202F8000DFA8DDE923640DF194085CE4039B002203F48063CDE9077809EE109A0DF59C7AFB
:202FA000DDF85490174698460CE00023204631460A2205F029FD0A2C76F100031CD3044611
:202FC0000E46AA4620460A220023314605F01CFD30320AF1FF3501370AF8012CB8F1000FC3
:202FE000E3D099F800309F42DFD1FF2FDDD00A2C76F1000380F0E580CDF854900E97DDF859
:203000002080079F19EE109AFFF7F9BA1AEE101A22AA484603F006FE00287FF491A89DF824
:203020006B30249C0DF19408FFF7D9B81AF0400200F0B680099A52F8044B09921E46A4B211
:2030400032E71AEE101A22AA484603F0EBFD00287FF476A8249C0DF19408FFF716BB1446BC
:2030600001330A9AC8F800202C44072BC8F80450CDE923347FF7F4A80BE4012BCDF80CA037
:203080007FF4ADAA51E4099B069953F8042B5D4611600993FFF705B9284604960994FEF776
:2030A0008FFE20EAE0719DF86B300790039108960C960F960D96FFF743B9102E239B40F324
:2030C0009684BC480A90424621461AEE108A1027044604E00832103E102E40F33B82013358
:2030E0001031072BC2E90047CDE92331F2DD22AA4146484603F096FD00287FF421A8DDE901
:20310000233125AAE7E7129B13991C44C8E90013239B24940133072B239300F3288108F11A
:203120000808002AC0F2FD820E9AC8F8005001331444072BCDE92334C8F804207FF790A80F
:20314000FFF7A7BBDDF810A01C4601360A9BC8F800302C44072ECDE92364C8F804507FF7F8
:2031600089ABD8E4099B1AF4007614BF53F8044B53F8044B09931CBF1646E4B2FFF761B9B7
:20318000039B13F40076099B14BF53F8044B53F8044B09931CBF1646E4B20123FFF755B9D8
:2031A000099B1AF4007614BF53F8044B53F8044B09931CBF1646E4B276E67E4A0A92FFF7C1
:2031C00013BB189B1799ED1A1A46284603F0BCFC99F801300BB109F10109204631460A22B3
:2031E0000023002705F010FCE9E62D238DF86B30FFF796B80E9A0799AE18761AD51AAE4284
:20320000A8BF2E464AE444F3C016334664B2FFF7C2B8099B069953F8042B099311805D460C
:20322000FFF73FB830238DF86C3058238DF86D30049B632B4AF0020400F3D582002308931B
:2032400035ADDDE910124AF481730793002A27F02003A2460393C0F29F81002342EC181BA0
:203260000A93612F00F04A83412F7FF453ADB0EE480AF0EE680A1CA803F0D8FB00224FF056
:203280007F5351EC100B05F0E7F802460B4643EC192B0022002305F047FB08B101231C931C
:2032A000454B0B93049B1995CDE90C7BCDE90EA80CEE109ADDF82CB059EC198B5E1E2C46BE
:2032C00005E000220023013E05F02EFBE0B93B4B00224046494605F0BFF88946804605F0DB
:2032E0006BFB054605F04EF80B4602464946404604F0FAFE1BF80530A24604F8013B731C51
:20330000374680468946DCD149EC198B2C4BDDF83C8051EC190B00223E461CEE109ADDE98C
:203320000C7BCDF830A00D95DDF838A0199D05F023FB002840F0368251EC190B204B00225B
:2033400005F0F2FA18B10D9BD90700F12B82002E334606DB01332344302204F8012BA3421B
:20336000FBD1631B56460E93DDF81CA0F6E41AEE101A22AA484603F055FC00287EF4E0AE63
:20338000DDE923341C9A0DF19408CAE61AEE103A986D02F00FF9FEF79FBE1C9B0D93DA1C20
:2033A00002DB049A93420DDD023F27F020030393DEE400BF44900100149001000000304057
:2033C0000000E03FDDE90D329342C0F27F81F00740F19182129A13440793710503D50D9B74
:2033E000002B00F35A82079B23EAE3730393672700230C930F931DE52D2300228DF86B30B2
:203400000492FEF7A0BF0E9BCDF828B0DDF83CB0079E159FCDF81CA0EB1804934246DDF8EA
:2034200060A00C9B0B951AEE108AA446BBF1000F30D0002B71D1013F0BF1FF3B179BC2E9BE
:20344000003A239B0133D444072BCDF890C0239367DC0832049B38789B1B8342A8BF034634
:20346000002B1C460BDD239801309C440728C2E90063CDF890C023905FDC38780832002CB5
:20348000ACBF051B0546002D17DC06440C9BBBF1000FCED1002B40D10B9D0E9BDDF81CA0CD
:2034A000DDF828B01597EB189E429046324628BF1A4664460792FFF7C3BA102D23981FDD91
:2034C0001024634604E0103D102D02F1080216DD0130B34910330728C2E90014CDE9230377
:2034E000F1DD22AA4146484603F09CFB00287EF427AE103D102DDDE9230325AAE8DC9C4639
:203500000130A74B5560AC440728CDE9230C13604DDC387808320644B8E70C9B013B0C93DE
:203520008CE722AA4146484603F07CFB00287EF407AEDDF890C025AA8CE722AA4146484636
:2035400003F070FB00287EF4FBAD3878DDF890C025AA94E790460C4601330A9AC8F80020CC
:203560003444072BCDE92334C8F8046000F3618108F10808FFF75DBA1AEE101A22AA4846F9
:2035800003F050FB00287EF4DBAD1C9A249C0DF19408FFF76FBB0893DDE9103408EE103AB6
:2035A00004F1004308EE903A2D230A9359E622AA4146484603F036FB00287EF4C1AD38782A
:2035C000DDF890C025AA064460E71AEE101A22AA484603F027FB00287EF4B2AD249C0DF10E
:2035E0009408FFF71FBA1AEE101A22AA484603F019FB00287EF4A4AD1C9B249C0DF19408D1
:20360000FFF734BA20AB01931DAB0093049AB0EE480AF0EE680A1CAB0321484600F0BCFB0E
:203620000378302B054600F099811C9B049A56461344DDF81CA0EC1851EC180B00220023DD
:2036400005F072F910B12346FFF786BB209BA342BFF482AB30215A1C20921970209B9C428E
:20366000F9D8FFF779BB049B0393079309949DF86B3004900C900F900D90FEF761BE1C9A7D
:203680000D92002A40F39081049906F001030B4340F02B810D9B07936627730500F1FE80A6
:2036A000079B23EAE3730393A2E61AEE101A22AA484603F0B7FA00287EF442AD1C9D0E9BCC
:2036C000249C5D1B0DF19408FFF7E8B90E9B129A9A180D9B0792002B40F353816727DCE7B6
:2036E00000230493FEF753BC1AEE101A1AEE900A22AA03F097FA00283EF4DBADFEF727BD2D
:203700006B6EDC0705D4AB89980502D4A86D01F051FF4FF0FF330693FEF723BD049BEC1895
:203720008AE75642103280F26F811D480A90424621461AEE108A1027044603E00832103E60
:20374000102E5ADD01331031072BC2E90047CDE92331F3DD22AA4146484603F063FA002828
:203760007EF4EEACDDE9233125AAE8E7049BB0EE480AF0EE680A5C1C20AB01931DAB009374
:2037800022461CAB0221484600F006FB054656462C44DDF81CA04FE7014A0A92FEF7E6BFB9
:2037A000449001000C9B20930B9B14F8012CD97B8A42234609D1302003F8010C209B5A1E0D
:2037C000209213F8012C9142F6D0392A0BBF0B9A0132927AD2B203F8012CC2E530238DF82A
:2037E0006C30782322E5591C484601F055FF0546002800F00C81089023E590460C46013357
:203800000A9AC8F800203444072BCDE92334C8F804607FF744AA1AEE101A22AA484603F066
:2038200001FA00287EF48CACDDE923340DF194087AE41AEE101A22AA484603F0F3F9002813
:203840007EF47EAC249C0DF19408FFF7F2B8049B002B08BF01230493119B4AF48072002B7F
:203860000792C0F29B809DED108B0A900890FFF758BA06230493FFF73FBA002940F0A88053
:2038800030228DF87A200DF17B02303302F8013B1EABD31A1693FFF7B6BA672715990B781F
:2038A000FF2B00F0A78000240D9A204603E001300131FF2B08D0934206DAD21A4B78002BBF
:2038C000F5D10B780134F4E715910D920F900C940C9A0F9B18991344079A01FB0323079356
:2038E00023EAE3730393FFF7A5BA129BD318194407916627D1E60D9B07936EE51CA8B0EEB2
:20390000480AF0EE680A03F091F800224FF07F5351EC100B04F0A0FD02460B4643EC192B61
:203920000022002305F000F808B101231C933C4B0B93B7E4119B3B4D3B4A002BB6BF2D2360
:203940009DF86B308DF86B302AF0800AFEF7ECBC07F10F02D2B20121FFF713BA51EC180B04
:203960000022002304F0E0FF00287FF45EAE049BC3F101031C9359E6F4077FF54FAAFFF7E5
:2039800049BAC3F101031A4422EAE2730792039367272DE5254A0A92FFF762BB0890FBE548
:2039A000224B0A93FFF7D1BB049A06F0010656EA020304D1012303936627079318E5129B3B
:2039C00001331A4422EAE2730792039366270FE50DF17A0259E7099B9BF80170934653F8BE
:2039E000042B099342EAE2720492FEF7CEBA0F4A0A92B1E500230C930F9369E7022316935C
:203A0000FFF701BA049CC2E6084A0A92F7E61AEE102A938943F040039381FEF798BB00BFF3
:203A200000900100F88F0100FC8F01004490010070B50C468989ADF58E6D21F00201ADF82D
:203A40001410616E1B91E189ADF81610E1690991616A0B911CA9029106914FF480610646E8
:203A60000491079118A80021CDE90032089101F09BFDDDE9003202A93046FEF711FA051EF2
:203A800007DB02A9304601F0BDF9002818BF4FF0FF35BDF814305B0603D5A38943F0400336
:203AA000A381189801F082FD28460DF58E6D70BD38B5334B1B6805460C460BB19A6B12B319
:203AC000B4F90C3018079AB225D5216900292DD012F0010007D00020A06060694042A061A2
:203AE00039B1002038BD950758BF6069A0600029F7D1120658BF0846F4D543F04003A3817A
:203B00004FF0FF3038BD184601F0B0F9B4F90C3018079AB2D9D4D1062AD5520714D42169A8
:203B200043F00803A3819AB20029D1D102F42070B0F5007FCCD02146284601F03DFDB4F919
:203B40000C3021699AB2C3E7216B51B104F14002914204D0284601F081FAB4F90C30002258
:203B6000226321690022C4E9001223F02403D7E7092243F040032A604FF0FF30A38138BDAB
:203B80002C000020024B13B1024800F06BB8704700000000914F01002DE9F84F2F4B2DEDE2
:203BA000028B834618680F4601F002FD2C4BD3F80080D8F84861AEB108EE10BA4FF0010947
:203BC0004FF0000A7468651E0CD4013406EB840487B1D4F80031BB420CD0013D6B1CA4F147
:203BE0000404F5D1BDEC028B1C4B1868BDE8F84F01F0E0BC73682268013BAB420CBF756033
:203C0000C4F800A0002AE8D0D6F88801D6F804B009FA05F101420BD1904772685A4513D141
:203C2000D8F84831B342D8D01E46002ECAD1D9E7D6F88C0101420CD1D4F8801018EE100ABA
:203C4000904772685A45EBD0D8F84861002EB9D1C8E7D4F880009047DFE700BF5804002055
:203C6000E88F0100002301461A46184603F092BF2DE9F04F03690C69A34283B0C0F2878059
:203C8000013C01F11405A30000F11408009355F8243058F82420013381469A4208EB840016
:203CA00005EB84070190B2FBF3F63BD30023AE4640469B465EF804AB02681FFA8AFC06FBC7
:203CC0000C334FEA134C4FEA1A4A06FB0ACA1FFA83FCABEB0C0C1FFA8AF31CFA82FCC3EB7D
:203CE000124202EB2C421FFA8CFC4CEA0243774540F8043B4FEA224B4FEA1A43DAD2009B43
:203D000058F8033073B9019B043B984504D307E0984504F1FF3403D253F80429002AF7D03B
:203D2000C9F81040484602F065FB00282BDB01364046002355F8041BD0F800C08AB29A1AA0
:203D40000B0C12FA8CF2C3EB1C4303EB224392B242EA0342AF4240F8042B4FEA2343E9D2FB
:203D600058F8242008EB84036AB9043B984504D307E0984504F1FF3403D253F80429002ABC
:203D8000F7D0C9F81040304603B0BDE8F08F002003B0BDE8F08F00BF2DE9F04F2DED068B48
:203DA00095B08DED020B0191016C249D099259EC108B0446069341B1426C4A6001239340D8
:203DC0008B6002F0B5F800232364B9F1000AB4BF012300232B607C4BBCBF2AF0004ACDF84B
:203DE0000CA033EA0A0300F0B2809DED027B002251EC170BB0EE479AF0EE679A002304F0CE
:203E000093FD074680B1069A01231360259B002B00F0DB826D481860431E0093009815B0A7
:203E2000BDEC068BBDE8F08F12AA13A92046B0EE490AF0EE690A02F0A5FBB0EE498AF0EE23
:203E4000698A5FEA1A56054640F09980DDE912763E4406F23240202840F3AB83C0F140004E
:203E60000AFA00FA06F2124028FA00F04AEA000004F078FA0123013E0D93A1F1F871544BB1
:203E8000002204F031F94AA3D3E9002304F0E4FA49A3D3E9002304F029F980463046894658
:203EA00004F070FA46A3D3E9002304F0D5FA02460B464046494604F019F98046894604F0DC
:203EC0007BFD0022834600234046494604F036FD002840F06D82BBF1160F00F25C823D4BB0
:203EE00003EBCB03D3E9002351EC190B04F026FD002875D00023BE1B0C93731E0BF1FF3BE0
:203F0000049300F14F8200230893BBF1000F6EDA089BCDF814B0A3EB0B030893CBF1000365
:203F20000B93019B092B4FF0000B69D8052B40F33E83043B01930026019B023B032B00F272
:203F40009986DFE813F04E044B0443042604069A42F20F73CAF3130A13605AEA08031DD186
:203F6000259B002B00F07D861B4B00930833259A0098136015B0BDEC068BBDE8F08F18EE3C
:203F8000903AC3F3130351EC190B43F07F510D97A6F2FF36129F41F4401170E7259B002B3D
:203FA00040F0DB830D4B009338E700BFAFF3008061436F63A787D23FB3C8608B288AC63FB6
:203FC000FB799F501344D33F0000F07F319001000000F83FA09101005890010054900100AD
:203FE000BE1B731E049300F19A840C900890049B5B44CDE9043B00230B93019B092B95D94B
:20400000002301264FF0FF3201930A9607920993079B0F9300216164204601F063FF00900A
:20402000002800F02F86009B2364079B0E2B00F2F980002E00F0F6800599002940F37184C8
:20404000BD4B01F00F0203EBC2034FEA2118C905D3E9006740F10384B84B51EC190BD3E968
:20406000082304F023FB41EC180B08F00F084FF0030AB8F1000F13D0DFF8C09218F0010F7C
:2040800009D030463946D9E9002304F0E5F90AF1010A06460F465FEA680809F10809EDD172
:2040A00051EC180B32463B4604F000FB41EC1A0B0C9B5BB157EC1A6BA14B1AEE100A0022BB
:2040C000394604F03BFC002840F05285504604F059F953EC1A2B04F0BFF99A4B002204F000
:2040E00005F8079B8046A1F15079002B00F0F383059B1093079B0E930A9B002B00F0C084E5
:204100000E9A8D4B9049DDF800A003EBC20353E90223002004F0CAFA42464B4603F0E4FFF6
:2041200059EC1A8B41EC180B49461AEE100A04F043FC074604F026F902460B461AEE100A46
:20414000494603F0D1FF30370AF8017B53EC182B06460F4604F0F2FB002840F055854FF0B3
:2041600000080AEE105ACDF844B055465BEC18AB08EE104A44462AE00E9B01349C424BDAB2
:20418000724B50465946002204F066F96F4B002282468B463046394604F05EF9894680466E
:2041A00004F00AFC074604F0EDF802460B464046494603F099FF303705F8017B52465B468D
:2041C00006460F4604F0BAFB002840F0188532463B465B49002003F087FF52465B4604F03D
:2041E000ADFB0028C8D0109B009A0593AA4618EE104A1AEE105A02E0924500F0EA84D1468A
:204200001AF8013D392BF7D00133DBB28AF80030059B01330593ABE1DDF844B01AEE105A7D
:2042200018EE104A139B002BC0F29480059A0E2A00F39080404B03EBC203D3E90089099B7E
:20424000002B1BDA079B002B18DC40F05D83404B00224046494604F0FFF802460B4651ECEA
:20426000190B04F075FBDDF81CA05646002800F0D082099BDDF80080DF43D2E242464B4637
:2042800051EC190B04F012FA04F096FB0646834604F078F842464B4604F0DEF80B46024643
:2042A00051EC190B03F020FFDDF800A0334630330AF8013B079B012B00F08E834FF0010BE2
:2042C00008EE105A08EE904A1D465446DA461DE042464B463046394604F0E8F904F06CFB56
:2042E000834604F04FF842464B4604F0B5F80AF1010A0B4602463946304603F0F5FE0BF18A
:204300003003AA4504F8013B00F061830F4B002204F0A2F80022002306460F4604F004FB8C
:204320000028D5D0A24618EE105A18EE904A059B01330593D1461BE1A091010078910100BD
:204340000000F03F00001C400000E03F00002440000014400A9A002A3FD0019A012A40F325
:204360009C82079B03F1FF380B9B4345C0F26E82A3EB0808079B002BC0F26683049A1A4480
:204380000492089A17461A4408920121204601F07DFE064625E00123BE1B0C93731E049387
:2043A0007FF5B1ADC6F10103089300230493ACE5584603F0E7FF42464B4604F0B5FA00282F
:2043C0007FF489AD0BF1FF3B85E5874B0093009815B0BDEC068BBDE8F08FDDF82C80089F4C
:2043E0000A9E002F0CDD049A002A09DD0899BA421346A8BF3B46C91AFF1AD31A0891049358
:204400000B9BDBB10A9B002B00F08282B8F1000F0FDD31464246204601F014FF2A460146E2
:204420000646204601F060FE29460546204601F07FFD0B9BB3EB080240F000830121204665
:2044400001F024FEBBF1000F824600F3B780019B012B40F386814FF000080120BBF1000F77
:2044600040F0B880049A104410F01F0000F09680C0F12003042B40F3F883089BC0F11C009C
:2044800003440244089307440492089B002B05DD29461A46204601F035FF0546049B002BF4
:2044A00005DD51461A46204601F02CFF82460C9B002B40F03781079B002B40F31E810A9BDB
:2044C000002B40F0A180059B01330593DDF80080DDF81C90012707E0294600230A222046EB
:2044E00001F030FD0137054651462846FFF7C0FB4F4500F1300008F8010BEDDB079A002A11
:20450000C8BF9346009AD8BF4FF0010B034693440027294601222046019301F0F3FE514673
:20452000054601F067FF002840F3A5811BF8013C009A0BF1FF3B04E05A4500F0A7811BF88A
:20454000013D392B0BF10109F6D001338BF800305146204601F0ECFC56B12FB1B74203D07D
:204560003946204601F0E4FC3146204601F0E0FC2946204601F0DCFC002389F80030DDE9A3
:2045800005231A60259B002B3FF448AC0098C3F8009015B0BDEC068BBDE8F08F1C20089B82
:2045A00003440893049B0344074404936DE70126C2E4C0F1200008FA00F059E401465A4649
:2045C000204601F03FFE019B012B824640F3D5814FF00008DAF810300AEB8303186901F0E8
:2045E00005FDC0F120003DE730900100314600230A22204601F0A6FC0F9B002B064640F3F0
:204600002383CDF814900793002F00F31881B8F1000F40F0FC81B046029B009F079903F00C
:2046200001027B1E1944019B0A9213430891099351462846FFF71CFB31468346284601F00D
:20464000D9FE424651468146204601F0F5FEC26801460BF13003002A42D1049028460793DA
:2046600001F0C8FE04990290204601F061FC029A079B1AB90999002900F0D682B9F1000FC3
:20468000C0F28781019949EA01090A9951EA090100F07F81002A00F3E781089A3B7007F1E7
:2046A00001099742CB4600F0E581294600230A22204601F047FC4645054631464FF00003C9
:2046C0004FF00A02204612D001F03CFC4146064600230A22204601F035FC4F468046A7E78B
:2046E0002046029301F024FC029B0122C6E701F029FC4F46064680469AE7019B022B77DCE7
:204700000A9B002B80D1059B5146013328460593FFF7AEFADDF800B000F130030BF8013B81
:204720000027F6E65146284601F064FE0028BFF6C2AE294600230A22204601F003FC059B1D
:2047400003F1FF390A9B0546002B7FF44FAF0F9B002B40F370820793B8E6BD4B009303339E
:2047600005E4DDE9021200297FF475AEC2F31303002B7FF470AEB74B1340002B00F03D8201
:20478000089B01330893049B013304934FF0010863E601230A93099B059A13440F9301337B
:2047A000012B1F460793B8BF01270021172F61647FF732AC012204235B0003F11400B84208
:2047C000114602F10102F7D9616425E401230A93099F002F4ADD0F970797E6E700230A935E
:2047E000D9E700230A93F3E70F9BCDF814900793079B002B7FF43DAD51460522204601F073
:20480000A1FB01468246284601F0F4FD00287FF730AD0098059F3123804600F8013B013760
:2048200000905146204601F083FB7B1CDDF800900593CDF80080002E7FF496AE98E63146C9
:204840003A46204601F05EFD0646E0E60B9BCDF82C80A8EB03039B444FF000088AE54FF090
:20486000020AB0EE498AF0EE698A02E4012309930793FFF7CDBB03D1019BDB073FF556AEA2
:20488000D9461BF8013D302BFAD061E6059B009A01330593312313705AE60D9A002A00F05E
:2048A000638103F23343049ADDF82C801A440492089A17461A44089267E5504603F062FD6B
:2048C00053EC1A2B03F0C8FD634B002203F00EFC8046A1F15079614B002251EC1A0B03F08B
:2048E00003FC42464B4606460F4604F045F8002840F07F8130463946424609F1004304F0C8
:204900001DF800283FF48EAC4FF0000A5646B0E429460B9A204601F095FC05468EE50C901E
:2049200040E500F04E81059A4D4B564206F00F0203EBC203D3E9002351EC190B03F08CFD4E
:20494000361141EC1A0B00F08881464F00234FF0020AF20706D5D7E9002303F07DFD0AF1A3
:20496000010A0123761007F10807F2D1002B3FF49FAB41EC1A0BFFF79BBB029B002B7FF437
:2049800027AEDDE90212C2F31303002B3FF4F3AE1EE6002A12DD294601222046019301F004
:2049A000B1FC5146054601F025FD0028019B40F33581392B00F013810BF13103B94609F890
:2049C000013B059B0133374605934646C0E5A24618EE105A18EE904A02460B4603F086FB3C
:2049E00042464B4606460F4603F0C6FF60B942464B463046394603F097FF00283FF497ACF7
:204A00005FEACB717FF593AC009AFFF7F8BB7168204601F067FA0746002800F03A813369CE
:204A200002339A0006F10C010C3001F039F939460122204601F066FC8046EDE5294620467C
:204A400001F000FC0546F9E4DDE907239F1A9CE4549001000000F07F00001C400000144014
:204A6000A091010078910100392B00F0B880B9460133A4E7059A013237460592464648E511
:204A80000E988D4901EBC00142464B4651E9020103F0E2FC5AEC1A9B41EC180B51461AEEDC
:204AA000100A03F089FF074603F06CFC02460B461AEE100A514603F017FB06460E98DDF89B
:204AC00000803037012808F8017B0F4600F0BA800E9B009ACDF838B013449B46C246774BD9
:204AE00000223046394603F0B7FC8946804603F063FF074603F046FC303702460B46404607
:204B0000494603F0F1FA0AF8017BDA4506460F46E5D1DA46DDF838B0694B59EC188B002299
:204B200018EE100A494603F0E1FA32463B4603F005FF00286DD118EE102A4B466049002008
:204B400003F0D2FA32463B4603F016FF00283FF469ABD1460AF1FF3A19F8013C302BF8D06A
:204B6000109B0133059303E5129BC3F136039AE6079B002B3FF4A1AE0F9B002B7FF752AB25
:204B8000059A0E93013A4D4B10921AEE100A3946002203F061FC024616460F460AF1010058
:204BA00003F0F0FB32463B4603F056FC454B002203F09CFA47EC1A6B8046A1F15079FFF7CF
:204BC0009BBA4FF0020AB0EE49AAF0EE69AAFFF76FBA059B013305933123FFF717BB059B6C
:204BE000BB4601330593392337460BF8013B46469EE44FF0000A56460BE698462DE4AA460D
:204C000018EE104A1AEE105A109B01330593D146AEE4109B009A0593FFF7F1BA7FF4CEAE35
:204C2000DA077FF5CBAEC4E6392BD8D0B9F1000F3FF7C2AEC2E6019B022B3FF7D5ADCDF8A3
:204C4000149060E5C24667E7019B022B3FF7CCAD0F9BCDF814900793D6E44FF0020AFFF7F5
:204C600027BA194B0093FFF7D9B83FF40EACC0F13C0094E4002666643146204601F032F99A
:204C8000009068B9114B124800224FF4D57102F0C7FF0E4B0E483A4640F2EA2102F0C0FF2D
:204CA000009B236401224FF0FF3309960F930A920793FFF7B7BA00BFA0910100000024400B
:204CC0000000E03F00001C40589001006490010078900100B1F90C202DE9F0410C461107EB
:204CE000804647D4636842F40062002BA2815EDDA56A002D58D00023D8F80060C8F8003040
:204D000093B212F4805256D10123E1694046A847431C67D0A389A56A5F0705D56368C01AB6
:204D2000236B0BB1E36BC01AE169024600234046A847411C41D1D8F80030002B3DD01D2BE8
:204D400001D0162B56D1A3892269226023F4006300216160A381216BC8F8006021B304F1EC
:204D60004003994202D0404600F078F900202063BDE8F0812669BEB193B2256826609A07AC
:204D80000CBF63690023AD1BA3600BE02B463246E169676A4046B847B0F1000CA5EB0C05CC
:204DA000664417DD002DF1DC0020BDE8F081E36B002B9DDCF8E7206DAEE7B4F90C302269BE
:204DC000226023F40063A3810022DB046260C2D52065C0E7A38943F040034FF0FF30A381F9
:204DE000BDE8F081D8F80030002B93D01D2B06D0162B04D0A38943F04003A381D5E7C8F89A
:204E00000060D1E738B50C46054608B1836BA3B1B4F90C00B8B1636EDB0701D4810515D5DB
:204E200028462146FFF756FF636EDA07054602D4A3899B050ED5284638BD00F017F8B4F9C1
:204E40000C000028E7D10546284638BDA06D00F0AFFBE5E7A06D00F0ADFB284638BD00BF7E
:204E6000014900F079BB00BF097D01002DE9F0478246394800F09CFBDAF83840002C66D1B4
:204E8000DAF80450354ACAF83C200323CAE9B843DFF8DC90DFF8DC80314F324E04230AF5DF
:204EA0003B72CAF8E8222146C5E90243C5E90044C5E904446C660822AC6105F15C00FCF7E9
:204EC000BFFEC5E90759C5E90987EE6205F1580000F06AFBDAF80850234BEB602146C5E9DE
:204EE0000044C5E904446C66AC60AC61082205F15C00FCF7A5FEC5E90759C5E90987EE62DF
:204F000005F1580000F050FBDAF80C50174BEB602146C5E90044C5E904446C66AC60AC61F3
:204F2000082205F15C00FCF78BFE05F15800C5E90759C5E90A76C5F8248000F035FB01234A
:204F4000CAF838300448BDE8F04700F033BBBDE8F047014800F02EBB240A0020614E010025
:204F6000216B0100416B01000900010012000200BD6A0100E16A0100014800F019BB00BF99
:204F8000200A0020014800F015BB00BF200A002038B5084B084D5B1B9C1007D0043B1D4487
:204FA000013C55F804399847002CF9D1BDE8384003F0F2BEE4090020E0090020F8B5244F5F
:204FC0000C46064600F082FFBA685568C4F57E630F3325F003052B4423F47F6323F00F035D
:204FE000A3F58054B4F5805F07DB0021304601F053FDBB682B44984204D0304600F06CFFF2
:205000000020F8BD6142304601F046FD01300DD0104ABB682D1B45F001055D6013683046B2
:205020001B1B136000F058FF0120F8BD0021304601F032FDBA68831A0F2BDEDD43F0010308
:205040005360054B03491B68C01A0860D5E700BF5C040020280A002064080020002961D009
:20506000F8B50C46064600F031FF54F8042C7B4FA4F1080522F0010105EB010CB868DCF8D8
:205080000430604523F0030300F08B80D207CCF8043032D454F8082CAD1A1144AA6807F1A6
:2050A000080082426AD00CEB0304D4F804E0EC68D4601EF0010FA26000F0978041F0010358
:2050C0006B60CCF80010B1F5007F35D27A68CB0848090121013381401143796007EBC30204
:2050E00057F83310083AC5E9021247F83350CD603046BDE8F84000F0EFBE0CEB0302526885
:20510000D00710D4194407F10800DCF80830834273D0DCF80C20DA60936041F001036B6036
:205120006950D0E7704741F00103B1F5007F44F8043CCCF80010C9D3B1F5206F4FEA512320
:2051400048D28B0903F1390003F13802C300F818FB580838984259D05A6822F003028A4238
:2051600002D99B689842F7D1D868C5E902308560DD603046BDE8F84000F0AEBE0CEB0302C2
:205180005268D20763D40B44DCE90212CA60916043F001026A603046EB50BDE8F84000F084
:2051A0009BBE0B44D10707D454F8082CAD1A1344D5E90212CA60916043F001026A60284A97
:2051C000BD6012689A4293D8264B30461968FFF7F5FE8DE7142B0AD9542B1FD80B0B03F18A
:2051E0006F0003F16E02C300B1E719448DE703F15C0003F15B02C300A9E741F00103C7E9D7
:205200000455C5E902006B60695071E779689210012404FA02F20A437A60A6E7B3F5AA7F8A
:2052200006D8CB0B03F1780003F17702C3008EE740F25452934206D88B0C03F17D0003F122
:205240007C02C30083E74FF47E737E227FE741F001036B60CCF800104AE700BF5C04002025
:2052600068080020580A00209368002B00F085802DE9F04FB1F90C300C461907804683B05B
:20528000174698B225D523691BB310F002033D682DD04FF0000ADFF8BCB25646B9465E45A0
:2052A0003346524628BF5B464046002E52D0E169676AB847002856DDD9F808301B1A824406
:2052C000361AC9F80830002BE9D1002003B0BDE8F08F21464046FEF7EBFB002840F03681D2
:2052E000B4F90C303D6898B210F00203D1D110F0010944D14E46009746B38205D4F808B0E1
:2053000040F18380B3455A4600F2B28010F4906F40F0BF8020680192494600F05BFDA3682E
:20532000019AA3EB0B012368A1601344B24623600026009B9868A0EB0A00D144986000284F
:20534000C3D0B4F90C0080B2002ED6D1D5E900960835D1E7D5E900A60835A0E7214640469C
:20536000FFF750FD80B3B4F90C3043F040034FF0FF30A38103B0BDE8F08F002070471E46B4
:20538000AA46994618461D46009756B388B34A46D4E904132068B24228BF3246884205D9BB
:2053A000A16803EB010B5A4500F3A680934263DCE169676A2A464046B847B0F1000BD2DDB3
:2053C000B9EB0B09CAD00120009A9368A3EB0B035D44A6EB0B069360002B3FF476AF002E42
:2053E000D4D10AF1080353E902569A460833002EF9D032460A21284600F002FC002800F045
:205400009C800130A0EB0509C1E720682369984216D86369B34213D86FF00042B24228BFFA
:205420003246E16992FBF3F2676A02FB03F340464A46B847B0F1000A95DDA6EB0A0678E742
:20544000B345DA4628BFB2465246494600F0C2FCA3682268A3EB0A035244A3602260002B0A
:20546000EBD121464046FFF7CDFC0028E5D07AE72068B34632464EE72946019200F0AAFCC0
:20548000019AA3689B1AA360236813442360934696E723682169A3EB010B636903EB430A3D
:2054A0000AEBDA7A0BF101034FEA6A0A33445345524684BF9A46524643052CD5114640466E
:2054C00000F0EAF800283BD05A462169019000F0E7FBA289019B22F4906242F08002A28194
:2054E00003EB0B002361AAEB0B03C4F814A0A3602060B34632460EE729465A4600F06AFCCE
:2055000023685B44236021464046FFF77BFC00283FF456AF27E7404601F09CF8034600289A
:20552000DED121694046FFF799FDB4F90C300C2223F08003C8F8002017E7721C914627E722
:205540000C22B4F90C30C8F800200EE74FF0FF30BCE600BF00FCFF7F2DE9F84307468846AA
:2055600000F538764FF00009D6E90154013D11D4A389012B05F1FF3508D9B4F90E30013387
:20558000214603D03846C04749EA00096B1C04F16804EDD13668002EE6D14846BDE8F88339
:2055A000004870475C090020704700BF704700BF704700BF704700BF2DE9F0418B890C46E2
:2055C000990796B008D504F143030122C4E90432236016B0BDE8F081B4F90E100029064628
:2055E00027DB6A4602F092FC002821DB019D05F47045A5F50055B5FA85F54FF480686D0950
:205600004FF400674146304600F046F8B4F90C30F0B1204AF26343F08003C4F81480A38142
:205620002060206135BB3B43A38116B0BDE8F081A38913F0800519D04FF0400841463046DA
:2056400000F02AF80025B4F90C302F460028E0D19A05BED423F0030304F1430243F0020320
:205660000121C4E90421A3812260B2E74FF480682F46C7E7B4F90E10304602F05DFC10B954
:20568000B4F90C30CFE7A38923F0030343F001031BB2C8E7614E01002DE9F04F01F10B066B
:2056A000162E83B0044624D8102900F2BA8000F00DFC102618220220B54F3A44A2F108011F
:2056C00053688B4200F0BA805A68D96822F003021A449D68E9608D60516841F00101204613
:2056E000516003F1080500F0F7FB284603B0BDE8F08F36F0070600F19480B14200F29180A3
:2057000000F0E4FBB6F5FC7FC0F09A81730A00F08F80042B00F26F81B30903F1390003F15F
:20572000380CC3009A4F3B44A3F108055B689D4206D10CE0002980F22781DB689D4206D0B9
:205740005A6822F00302911B0F29F3DD60463D69DFF850C265457CD06A6822F00302931BFA
:205760000F2B00F37B81002BC7E904CC80F26C81B2F5007F80F01A81D308796801334FEA9C
:20578000521E012202FA0EF20A4357F833E0C5F808E007EBC3010839E9607A6047F833504A
:2057A000CEF80C50831001219940914257D8114206D120F003004900114200F10400FAD09F
:2057C00007EBC0094D468646D5F80C80454508D11DE1002B80F22481D8F80C80454500F0DD
:2057E0001681D8F8042022F00302931B0F2BF0DD2046D8E9025408EB060146F00106C8F8DE
:205800000460EC60A56043F00104C7E90411C1E902CC4C6048F8023000F05EFB08F10805F1
:2058200002E00C2323600025284603B0BDE8F08F4FF4007340204FF03F0C73E7D3689A4259
:2058400008BF02307FF440AF3D69DFF858C1654582D17A688310012199409142A7D9BD6872
:205860006B6823F003094E4503D8A9EB06030F2B7ADCDFF834B1474BDBF800201B680132A4
:20588000334405EB090A00F0338103F580530F3323F47F6828F00F084146204601F0FCF8DE
:2058A000411C024600F0F380824500F2EE803A4B196841441960084600F04E81DBF80010C5
:2058C000019301311BBFA2EB0A0A5044CBF80020186012F0070B00F01781CBF108010A44E9
:2058E000CBF5805190440831A1EB0801C1F30B0A51462046009201F0CFF8421CDDE900231E
:2059000000F04F81801A00EB0A081968BA6048F001005144BD425060196000F02981B9F15B
:205920000F0F40F227816868A9F10C0C2CF0070C00F0010040EA0C0068604FF0050E05EB8D
:205940000C00BCF10F0FC0E901EE00F2328150681546124B1A688A4238BF1960104B1A6828
:205960008A4238BF196094E0AA1943F0010346F001066E602046BA60536000F0ADFA08356B
:20598000284603B0BDE8F08FD9681A44A1E600BF5C040020580A0020280A0020500A00200F
:2059A000540A00206404002064080020B2F5206F4FEA522363D3142B00F2B78003F15C0182
:2059C000C9005B3307EB010E7958AEF1080E8E4500F091804B6823F00303934202D98968A8
:2059E0008E45F7D1D1F80CE07A68C5E9021ECEF80850CD60D6E6142B59D9542B00F29D80A1
:205A0000330B03F16F0003F16E0CC3008AE60EF1010E1EF0030F05F108057FF4D5AE51E0EC
:205A2000424445465368D8F80C1043F00103536055F8083F2046D9608B6000F04DFAF3E696
:205A4000F00806F1080237E62A442046536843F001035360083500F03FFAE5E6A91920465E
:205A600046F0010643F001046E60C7E90411C1E902CC4C60AB5000F02FFA0835D4E6930953
:205A800003F13901C90038339CE7BD425FD0BD68686820F003084645A8EB060302D80F2BA8
:205AA0003FF762AF204600F017FA0025BCE603F15C0003F15B0CC30034E659F808394B45C7
:205AC00040F0968010F0030F00F1FF30F5D17B6823EA01037B60490099423FF6C0AE19B920
:205AE000BDE649000EF1040E1942FAD0704667E603F11008D0E69A104FF001087B6808FAE8
:205B000002F21A437A6070E702EB08014942C1F30B0A51462046009200F0BEFF431CDDE958
:205B200000237FF4EFAEDA46EFE6542B25D8130B03F16F01C9006E3344E7B3F5AA7F25D8DC
:205B4000F30B03F1780003F1770CC300EAE5294B186840441860B1E6CAF30B0CBCF1000FBB
:205B60007FF4ACAEBD68C84448F001006860F0E61546EEE60123536094E7B3F5AA7F23D803
:205B8000D30B03F17801C90077331BE740F25452934223D8B30C03F17D0003F17C0CC3002E
:205BA000C0E5ABF1080BD844A8EB02084FF0000AABE605F1080120460093FFF74FFABD68A2
:205BC000009B68681968C4E640F254518B420BD8930C03F17D01C9007C33F3E64FF47E7312
:205BE0007F204FF07E0C9DE54FF47E717E23E9E67B6870E7280A002000000000000000008D
:205C000001F0FF01102A2BDB10F0070F08D010F8013B013A8B422DD010F0070F42B3F6D14A
:205C2000F0B441EA012141EA014122F007047FF000070023F0E80256083C85EA010586EAF7
:205C4000010685FA47F5A3FA87F586FA47F6A5FA87F68EB9EED1F0BC01F0FF0102F00702F2
:205C600032B110F8013B013A83EA010313B1F8D10020704701387047002D06BF3546033855
:205C8000073815F0010F07D1013015F4807F02BF013015F4C03F0130F0BC0138704700BF19
:205CA000844641EA000313F003036DD1403A41D351F8043B40F8043B51F8043B40F8043B19
:205CC00051F8043B40F8043B51F8043B40F8043B51F8043B40F8043B51F8043B40F8043BC8
:205CE00051F8043B40F8043B51F8043B40F8043B51F8043B40F8043B51F8043B40F8043BA8
:205D000051F8043B40F8043B51F8043B40F8043B51F8043B40F8043B51F8043B40F8043B87
:205D200051F8043B40F8043B51F8043B40F8043B403ABDD2303211D351F8043B40F8043B17
:205D400051F8043B40F8043B51F8043B40F8043B51F8043B40F8043B103AEDD20C3205D327
:205D600051F8043B40F8043B043AF9D2043208D0D2071CBF11F8013B00F8013B01D30B8879
:205D800003806046704700BF082A13D38B078DD010F003038AD0C3F10403D21ADB071CBF99
:205DA00011F8013B00F8013B80D331F8023B20F8023B7BE7043AD9D3013A11F8013B00F898
:205DC000013BF9D20B7803704B7843708B7883706046704788420DD98B1883420AD900EB17
:205DE000020CBAB1624613F801CD02F801CD9942F9D170470F2A0ED8034602F1FF3C4AB1F4
:205E00000CF1010C013B8C4411F8012B03F8012F6145F9D1704740EA01039B0750D1A2F161
:205E2000100370B501F1200C23F00F0501F1100E00F11004AC441B095EF8105C44F8105C52
:205E40005EF80C5C44F80C5C5EF8085C44F8085C5EF8045C44F8045C0EF1100EE64504F1F7
:205E60001004E9D1013312F00C0F01EB031102F00F0400EB031327D0043C24F003064FEA70
:205E8000940C1E441C1F8E465EF8045B44F8045FB442F9D10CF1010402F0030203EB84036F
:205EA00001EB840102F1FF3C4AB10CF1010C013B8C4411F8012B03F8012F6145F9D170BD35
:205EC00002F1FF3C03469BE72246EBE70148FFF76FBB00BF1C0A00200148FFF76BBB00BFFD
:205EE0001C0A0020C36C70B505460C464BB153F8240080B1026843F824200023C0E90333E4
:205F000070BD2122042101F0ABFE0346E8640028EDD1002070BD012101FA04F6721D920052
:205F2000284601F09DFE0028F3D0C0E90146E4E731B1C36C4A6853F82200086043F82210BC
:205F4000704700BFF0B50C69064683B00D4601F1140E0020DEF800101FFA81FC02FB0C33F3
:205F60004FEA134C090C02FB01CC01309BB203EB0C4384424EF8043B4FEA1C43EADC3BB15A
:205F8000AA68A24207DD05EB8402013453612C61284603B0F0BD6968019301313046FFF76A
:205FA000A1FF019B0746B8B12A690193023205F10C0192000C30FFF773FEF26C6968019B91
:205FC00052F82100286042F821503D4605EB8402013453612C61DBE7024B03483A46B52104
:205FE00001F01EFE64900100F8900100030C1B04D3B90004102310F07F4F04BF0002083357
:2060000010F0704F04BF0001043310F0404F04BF80000233002805DB10F0804F03F10103F0
:2060200008BF2023184670470023E4E7036813F00702014607D0DA071FD4980721D55B08F2
:206040000B600120704798B2A0B11046DAB20AB908301B0A1A0704BF1B0904309A0704BFC0
:206060009B080230DA0703D45B0800F1010006D00B6070471B0C1020E8E700207047202009
:2060800070479B080B600220704700BF38B5C36C04460D464BB15868B0B102685A60002287
:2060A0000123C0E90435C26038BD2122042101F0D7FD0346E0640028EDD1094B094800225C
:2060C0004FF4A07101F0ACFD1C220121204601F0C7FD0028F1D001220223C0E90123DEE794
:2060E00064900100F89001002DE9F04F0E691569AE4285B08846144605DB2A462346354657
:206100000C4616469846A3686168AF19BB42B8BF0131FFF7E7FE0190002800F08780019B8A
:2061200003F1140909EB870AD14505D24B46002243F8042B9A45FBD808F1140808EB860B74
:2061400004F11403D8451A4603EB85055FD22B1B153B23F0030304331534A54238BF0423D9
:20616000CDE902A7AC461F46924605E0000C29D1C34509F1040948D958F8040B85B2002DB3
:20618000F4D056464C46002356F8040B216882B21FFA81FE05FB02EE000C0A0C734405FB6F
:2061A000002202EB13429BB243EA0243B44544F8043B4FEA1243E7D849F8073058F8040C23
:2061C000000CD5D0D9F80030544619464D4600222688090C00FB06110A449BB243EA02437D
:2061E00045F8043B54F8046B2968360C8BB200FB063303EB1243A4454FEA1342E8D8C345A2
:2062000049F8073009F10409B6D8DDE902A7002F02DC05E0013F03D05AF8043D002BF9D076
:20622000019B18461F6105B0BDE8F08F034B0448019A40F25D1101F0F3FC00BF64900100A2
:20624000F890010012F003032DE9F0411446064632D10D46A41020D0D6F84880B8F1000F78
:2062600033D0E3074FF0000707D4641015D0D8F80000A8B18046E307F7D5424629463046A5
:20628000FFF732FFB5B16968F36C641053F821202A6043F821500546E9D12846BDE8F08182
:2062A000424641463046FFF71FFFC8F8000007608046E0E70546D8E7013B0F4A52F8232065
:2062C0000023FFF73FFE0546C4E701213046FFF709FE804640B1012340F27122C0E904325E
:2062E0000023B0640360BCE7044B054842464FF4A07101F095FC00BF6892010064900100B8
:20630000F89001002DE9F0470C4690462669A368496806EB6216751C9D4207464FEA62195A
:2063200004DD5B009D4201F10101FADC3846FFF7D9FD8446002851D0B9F1000F00F114005D
:206340000EDD09F105024FEA820E03460CEB8202002143F8041B9342FBD1AEF11403184496
:20636000216904F1140318F01F0803EB81012DD0C8F1200986464FF0000A1A6802FA08F27C
:2063800042EA0A024EF8042B53F8042B994222FA09FAF2D80B1B153B23F00303043304F157
:2063A0001502914238BF0423BAF1000F18BF2E4640F803A0FB6C6268CCF8106053F8221013
:2063C0002160604643F82240BDE8F087043853F8042B40F8042F9942F9D8EBE7034B0448A4
:2063E000624640F2D91101F01BFC00BF64900100F89001000B6984460069C01A16D10CF12F
:20640000140C14310CEB830210B401EB830301E0944508D252F8044D53F8041D8C42F7D035
:2064200005D24FF0FF305DF8044B7047704701205DF8044B704700BF2DE9F84F0F69136979
:20644000FF1A002F0E4690467AD101F11405143202EB830205EB830301E09D4273D253F8F6
:20646000041D52F8044DA142F7D064D37168FFF739FD8146002872D03569D8F81020C76084
:2064800008F1140E06F1140009F1140A06F1100C0EEB820200EB8507564600215EF8044B55
:2064A0005CF804BFA3B211FA8BF1CB1A210CC1EB1B4101EB23419BB243EA0143724546F8CC
:2064C000043B4FEA2141E9D8A2EB0804153C08F11508424524F0030606F1040638BF04265B
:2064E000304424F0030238BF002287425244B24416D95646044654F8043B11FA83F10A14A4
:2065000002EB134289B241EA0243A74246F8043B4FEA2241EFD87A1E101A20F00302524458
:2065200023B952F8043D013D002BFAD0C9F810504846BDE8F88F334601274646984695E75F
:20654000F9DB002792E70021FFF7CCFC814668B101220023C9E904234846BDE8F88F074BDD
:2065600007484A464FF4107101F05AFB034B04484A4640F2322101F053FB00BF6490010090
:20658000F89001002DE9F043884683B0012157EC106B1546FFF7A6FC044600284FD0C7F30A
:2065A0000A59C7F31303B9F1000F01D043F48013002E019324D068460096FFF737FD002808
:2065C00039D0DDE90013C0F1200203FA02F20A43C34062610193002B14BF02220122A36125
:2065E0002261B9F1000F16D0A9F233430344C0F13500C8F800302860204603B0BDE8F08392
:2066000001A8FFF713FD019B6361012220302261B9F1000FE8D104EB8203A0F23240C8F8CB
:2066200000001869FFF7E2FCC0EB42102860204603B0BDE8F083009B6361019BCBE7034B54
:206640000348224640F20A3101F0EAFA64900100F89001002DE9F84F1746002900F09880DC
:2066600007F10B0580460C46FFF730FC162D5DD810252A46AF425ED854F8041C21F003060E
:206680009642A4F1080962DABC4BD3F808C009EB0600844500F09780D0F804C02CF0010330
:2066A00003445B68DB0768D42CF0030C06EB0C03934247DACB0710D454F8083CA9EB030AAA
:2066C000DAF8043023F003018C44B444944580F211817318934280F2E88039464046FEF7C4
:2066E000DBFF0746E0B154F8043C23F001034B44A0F10802934200F0D280321F242A00F26D
:20670000F580132A00F2AC8003462246116819605168596092689A6021464046FEF79EFC24
:206720004046FFF7D9FB3846BDE8F88F25F00705002D2A469EDA0C23C8F800300027384665
:20674000BDE8F88F1E46D0E90223D3609A60731B0F2B22D8D9F8043003F0010333434E44D8
:20676000C9F80430736843F00103736040462746FFF7B2FB3846BDE8F88FC907ADD454F862
:20678000083CA9EB030ADAF8041021F00301A0E7BDE8F84F1146FEF77FBFD9F8041001F046
:2067A00001012943C9F8041009EB05014E4443F001034B60736843F0010308317360404684
:2067C000FEF74CFCD2E7DCF8040020F0030B06EB0B0C05F1100084454DDAC9073FF57DAF9F
:2067E00054F8081CA9EB010ADAF8041021F003018B44B34458453FF76CAF5746DAF80C1050
:2068000057F8080F321F242AC160886000F2DB80132A40F2D6802168CAF808106168CAF86A
:206820000C101B2A00F2DF8008340AF110022168116061685160A16891600AEB0501ABEB5E
:20684000050242F0010299604A60DAF8043003F001031D434046CAF80450FFF73DFB6EE7DD
:2068600023680360636843601B2A68D804F1080200F108034AE709EB05029A60ACEB050377
:2068800043F00103536054F8043C03F001031D43404644F8045CFFF71FFB27464FE750F80E
:2068A000043C23F003031E4451E75746DAF80C1057F8080F321F242AC16088604CD8132AEB
:2068C00048D92168CAF808106168CAF80C101B2A56D808340AF110021E46236813606368A4
:2068E0005360A3689360D1463C4630E72146FFF771FA11E7D0E902135746CB60996057F899
:20690000081FDAF80C30CB60321F242A99602DD8132A29D92368CAF808306368CAF80C30ED
